:0400000040EFFFF0DE
:020000040001F9
:10FE28007B840A0EE82EFED700D07B9412000E01C8
:10FE380037A721EFFFF023EFFFF01BEFFFF0E351AF
:10FE48001200236E0E0137A52CEFFFF02EEFFFF006
:10FE580026EFFFF023C0E4FE1200120E0E01626FBF
:10FE6800110E156FE997E895330EE56F000EE66FF2
:10FE7800E789E88BE78F120000EE60F03C0EEE6A2F
:10FE8800E806FDE100EE01F0220EEE6AE806FDE16B
:10FE980000014FEFFFF0B4ECFFF031ECFFF01BEC8A
:10FEA800FFF0296E2950156E166A155025ECFFF0E3
:10FEB800010E246E155065ECFFF053EFFFF000EFD4
:10FEC80000F0266E26380F0B256E2404D8A46FEF99
:10FED800FFF071EFFFF074EFFFF07B8C75EFFFF030
:10FEE8007B9C255080ECFFF0265080ECFFF0A00EA4
:10FEF80000D0E82EFDD71200236E23A086EFFFF076
:10FF080088EFFFF08BEFFFF07A868CEFFFF07A96A0
:10FF180023A291EFFFF093EFFFF096EFFFF07A84C2
:10FF280097EFFFF07A9423A49CEFFFF09EEFFFF089
:10FF3800A1EFFFF07D86A2EFFFF07D9623A6A7EF45
:10FF4800FFF0A9EFFFF0ACEFFFF07D82ADEFFFF01F
:10FF58007D9214ECFFF01A0EE82EFED700D01200A6
:10FF6800839C839482968294859685927B9C7B94CD
:10FF78007A967A947D967D92040E286E540E276E9A
:10FF8800EE0EE82EFED7272EFCD7282EFAD700D063
:10FF9800030E80ECFFF0D50EE82EFED700F0000E21
:10FFA800246E280E65ECFFF0D50EE82EFED700F083
:10FFB800000E246E280E65ECFFF0CA0EE82EFED760
:10FFC80000D0000E246E0E0E65ECFFF0CA0EE82E6F
:10FFD800FED700D0000E246E010E65ECFFF0210E56
:10FFE800276E340EE82EFED7272EFCD7000E246E7F
:08FFF800060E65ECFFF012009B
:020000040020DA
:10000000FF0FFF0FFF0FFF0FFF0FFF0FFF0FFF0F80
:020000040030CA
:0C000000AAFFFFFF9FFFFFFFFFFFFFFFB5
:00000001FF
