:0400000029EF10F0E4
:100E00000025642E25303264000042C0D9FF43C063
:100E1000DAFFDECFF6FFDDCFF7FF000EF86E080039
:100E2000F550250AD8A417EF07F019EF07F0B2EF35
:100E300008F042C0D9FF43C0DAFFDE2A000EDD22EF
:100E4000000E0001B36F000EB26FB2C0B6F0B3C0B7
:100E5000B7F0B469B569000E536E000E526E7EEFA6
:100E600007F00001B68142C0D9FF43C0DAFFDE2A95
:100E7000000EDD227EEF07F00001B68333EF07F0AE
:100E80000001B68533EF07F00001B68733EF07F0B6
:100E90000001B68933EF07F0000E536E010E526E5B
:100EA0007EEF07F042C0D9FF43C0DAFFDECFF6FF86
:100EB000DDCFF7FF000EF86E0800F550466E476A6A
:100EC0004750000AD8B467EF07F04CEF07F04650E0
:100ED000200AD8B444EF07F0030AD8B448EF07F06B
:100EE000080AD8B440EF07F0060AD8B431EF07F08B
:100EF0001D0AD8B43CEF07F04CEF07F052505310E6
:100F0000D8B485EF07F087EF07F052EF07F0000144
:100F1000B6A18DEF07F08FEF07F090EF07F0B693D3
:100F200042C0D9FF43C0DAFFDECFF6FFDDCFF7FFC7
:100F3000000EF86E0800F5502A0AD8A4A2EF07F0B8
:100F4000A4EF07F0CDEF07F042C0D9FF43C0DAFFAE
:100F5000DE2A000EDD2244C0D9FF45C0DAFFDFCF14
:100F600046F0020EDE26DFCF47F0000EDD2246C03F
:100F7000D9FF47C0DAFFDECFB2F0DDCFB3F0B3BFA9
:100F8000C6EF07F0C4EF07F012EF08F0B681B26DBC
:100F9000B31FD8B0B32B12EF08F042C0D9FF43C043
:100FA000DAFFDECF0BF0DDCF0CF041EC0AF00BC026
:100FB000B2F00CC0B3F0E4EF07F042C0D9FF43C079
:100FC000DAFFDE2A000EDD22D00E466EFF0E476EDF
:100FD00042C0D9FF43C0DAFFDECFF6FFDDCFF7FF17
:100FE000000EF86E0800F550486E496A46504826D3
:100FF0004750492249500AE10A0E485CD8A003EF45
:1010000008F006EF08F0010E07EF08F0000E546E2E
:10101000556A54505510D8A410EF08F012EF08F09C
:10102000DDEF07F042C0D9FF43C0DAFFDECFF6FFA5
:10103000DDCFF7FF000EF86E0800F550640AD8B453
:1010400024EF08F026EF08F03AEF08F042C0D9FF8D
:1010500043C0DAFFDECFF6FFDDCFF7FF000EF86EFC
:101060000800F550690AD8A438EF08F03AEF08F004
:101070007AEF08F042C0D9FF43C0DAFFDE2A000E43
:10108000DD2244C0D9FF45C0DAFFDFCF46F0020EB3
:10109000DE26DFCF47F0000EDD2246C0D9FF47C075
:1010A000DAFFDECF4AF0DDCF4BF0000E4BBEFF0E75
:1010B0004C6E4D6E4E6E4F6E506E516E40C01CF0B9
:1010C00041C01DF04AC01EF04BC01FF04CC020F0C4
:1010D0004DC021F04EC022F04FC023F050C024F08C
:1010E00051C025F0D0EC08F01CC040F01DC041F00C
:1010F000CFEF08F042C0D9FF43C0DAFFDECFF6FFE2
:10110000DDCFF7FF000EF86E0800F550250AD8A4D1
:101110008CEF08F08EEF08F0A5EF08F042C0D9FF81
:1011200043C0DAFFDE2A000EDD22000E026E250E1D
:10113000016E40C003F041C004F009EC0DF0000E58
:10114000416E010E406ECFEF08F042C0D9FF43C0A0
:10115000DAFFDE2A000EDD22000E416E000E406E28
:10116000CFEF08F042C0D9FF43C0DAFFDECFF6FF71
:10117000DDCFF7FF000EF86E0800F550016E026A31
:1011800040C003F041C004F009EC0DF042C0D9FFAB
:1011900043C0DAFFDE2A000EDD229FEF08F01200C6
:1011A0001EC036F01FC037F020C038F021C039F023
:1011B00022C03AF023C03BF024C03CF025C03DF0F3
:1011C0003DBEE5EF08F0E8EF08F0010EE9EF08F0AA
:1011D000000E346E356A34503510D8B4F2EF08F092
:1011E000F4EF08F004EF09F03D1E3C1E3B1E3A1ED2
:1011F000391E381E371E366C000E3722382239222F
:101200003A223B223C223D220001B5BF0AEF09F001
:101210000CEF09F00DEF09F0B693B5BF1AEF09F026
:10122000B55106E1B405D8B018EF09F01AEF09F08E
:1012300020EF09F0000E316E010E306E24EF09F040
:10124000B4C030F0B5C031F0B2C032F0B3C033F04A
:1012500034503510D8A42FEF09F031EF09F038EFF2
:1012600009F0B6A536EF09F038EF09F03BEF09F0C9
:101270003206D8A03306000E3F6E1F0E3E6E000EE3
:10128000E56FBFEF09F03E06D8A03F06C60E3E242C
:10129000D96E000E3F20DA6E36C001F037C002F082
:1012A00038C003F039C004F03AC005F03BC006F086
:1012B0003CC007F03DC008F00A0E096E000E0A6E31
:1012C000000E0B6E000E0C6E000E0D6E000E0E6EFC
:1012D000000E0F6E000E106ED7EC0BF001C026F062
:1012E00002C027F003C028F004C029F005C02AF08E
:1012F00006C02BF007C02CF008C02DF026C013F05C
:1013000028C014F032EC0FF01350300FDF6E3006AF
:10131000D8A031063206D8A0330636C001F037C057
:1013200002F038C003F039C004F03AC005F03BC009
:1013300006F03CC007F03DC008F00A0E096E000E32
:101340000A6E000E0B6E000E0C6E000E0D6E000E7F
:101350000E6E000E0F6E000E106E13EC0BF001C03F
:1013600036F002C037F003C038F004C039F005C0D1
:101370003AF006C03BF007C03CF008C03DF03FBE6D
:10138000CAEF09F03F5008E13E04D8A0CAEF09F0C7
:10139000CCEF09F0FDEF09F0365037103810391056
:1013A0003A103B103C103D10D8A4D9EF09F0DBEF08
:1013B00009F043EF09F031BEE8EF09F0315006E1E2
:1013C0003004D8B0E6EF09F0E8EF09F043EF09F098
:1013D00033BEF3EF09F0335008E13204D8A0F3EF45
:1013E00009F0F5EF09F0FDEF09F00001B6B3FBEFEE
:1013F00009F0FDEF09F043EF09F034503510D8A49F
:1014000004EF0AF006EF0AF00EEF0AF00001B6A5AD
:101410000CEF0AF00EEF0AF02CEF0AF03E06D8A00F
:101420003F0634503510D8A418EF0AF01AEF0AF02E
:1014300020EF0AF0000E2F6E2B0E2E6E24EF0AF016
:10144000000E2F6E2D0E2E6EC60E3E24D96E000E8F
:101450003F20DA6E2EC0DFFF1CC011F01DC012F05D
:10146000C60E3E24136E000E3F20146E32C015F0DF
:1014700033C016F06EEC0DF011C01CF012C01DF060
:101480001200000E196E000E186E000E126E000E85
:10149000116E4DEF0AF00B4A0C2A010E176E0BC0AD
:1014A000F6FF0CC0F7FF000EF86E0800F550200A9A
:1014B000D8B45DEF0AF05FEF0AF07EEF0AF0F70EA6
:1014C0000D6EFF0E0E6E0BC0F6FF0CC0F7FF000E88
:1014D000F86E0800F5500F6E106A0D500F260E5072
:1014E0001022105009E1050E0F5CD8A07AEF0AF027
:1014F0007CEF0AF07EEF0AF0000E176E17C013F0B3
:10150000146A13501410D8A488EF0AF08AEF0AF076
:101510004BEF0AF094EF0AF0000E126E010E116EFE
:101520000B4A0C2ACDEF0AF00BC0F6FF0CC0F7FFF8
:10153000000EF86E0800F5500D6E0E6A0E50000A8F
:10154000D8B4A5EF0AF0CDEF0AF00D502B0AD8B4AD
:1015500090EF0AF0060AD8B48CEF0AF0CDEF0AF04B
:1015600018C005F019C006F0000E086E0A0E076ECE
:10157000EEEC0FF00BC0F6FF0CC0F7FF000EF86E9C
:101580000800F550055E000E065A300E0524186E50
:10159000000E0620196E90EF0AF0D00E0D6EFF0EB1
:1015A0000E6E0BC0F6FF0CC0F7FF000EF86E0800C1
:1015B000F5500F6E106A0D500F260E50102210506D
:1015C0000AE10A0E0F5CD8A0E8EF0AF0EBEF0AF090
:1015D000010EECEF0AF0000E156E166A155016108B
:1015E000D8A4F5EF0AF0F7EF0AF0B0EF0AF01150C7
:1015F0001210D8A4FEEF0AF000EF0BF00EEF0BF084
:1016000018C00DF019C00EF00D1E0E1E0D4A0E2A48
:101610000DC00BF00EC00CF012EF0BF018C00BF069
:1016200019C00CF01200000E126E10BE1CEF0BF071
:101630001AEF0BF02EEF0BF0101E0F1E0E1E0D1EDC
:101640000C1E0B1E0A1E096C000E0A220B220C2215
:101650000D220E220F221022010E126E08BE35EF4F
:101660000BF033EF0BF047EF0BF0081E071E061EC2
:10167000051E041E031E021E016C000E0222032220
:1016800004220522062207220822010E121A20EE49
:1016900013F0070EDE6AE806FDE209500A100B108F
:1016A0000C100D100E100F101010D8B45AEF0BF0D4
:1016B0005CEF0BF0AEEF0BF0010E116E6AEF0BF06A
:1016C000D89009360A360B360C360D360E360F36E4
:1016D0001036112A10AE6FEF0BF071EF0BF060EFC8
:1016E0000BF0D890133614361536163617361836D2
:1016F00019361A360950015C0A5002580B5003582B
:101700000C5004580D5005580E5006580F500758ED
:1017100010500858D8A08FEF0BF091EF0BF0A2EF0C
:101720000BF00950015E0A50025A0B50035A0C503C
:10173000045A0D50055A0E50065A0F50075A1050B1
:10174000085A1380D89010320F320E320D320C32FC
:101750000B320A320932112E71EF0BF01250D8B44D
:10176000B4EF0BF0B6EF0BF0C6EF0BF01A1E191E1C
:10177000181E171E161E151E141E136C000E1422A2
:10178000152216221722182219221A2213C001F03C
:1017900014C002F015C003F016C004F017C005F025
:1017A00018C006F019C007F01AC008F01200000EA9
:1017B000126E08BEE0EF0BF0DEEF0BF0F2EF0BF075
:1017C000081E071E061E051E041E031E021E016CB7
:1017D000000E0222032204220522062207220822EA
:1017E000010E126E10BEF9EF0BF0F7EF0BF009EFE0
:1017F0000CF0101E0F1E0E1E0D1E0C1E0B1E0A1EC0
:10180000096C000E0A220B220C220D220E220F223E
:10181000102209500A100B100C100D100E100F1092
:101820001010D8B416EF0CF018EF0CF060EF0CF0BD
:10183000010E116E26EF0CF0D89009360A360B36E1
:101840000C360D360E360F361036112A10AE2BEF31
:101850000CF02DEF0CF01CEF0CF00950015C0A505D
:1018600002580B5003580C5004580D5005580E5098
:1018700006580F50075810500858D8A042EF0CF0E7
:1018800044EF0CF054EF0CF00950015E0A50025A7C
:101890000B50035A0C50045A0D50055A0E50065A5C
:1018A0000F50075A1050085AD89010320F320E328B
:1018B0000D320C320B320A320932112E2DEF0CF0A0
:1018C0001250D8B466EF0CF068EF0CF078EF0CF023
:1018D000081E071E061E051E041E031E021E016CA6
:1018E000000E0222032204220522062207220822D9
:1018F00001C001F002C002F003C003F004C004F014
:1019000005C005F006C006F007C007F008C008F0E3
:101910001200D1EC0DF001EC10F010EC10F0D6EC50
:101920000FF001C00BF002C00CF0000E0E6E4D0E59
:101930000D6E1DEC0EF00BC0BCF00CC0BDF0D6EC73
:101940000FF001C005F002C006F0000E086E640E34
:10195000076EEEEC0FF005C00BF006C00CF0000EA9
:101960000E6E4D0E0D6E1DEC0EF00BC05EF00CC039
:101970005FF0BCC005F0BDC006F0FF0E086E9C0E07
:10198000076EEEEC0FF005505E240001BA6F0650B2
:101990005F20BB6FF60EE66F000EE76F010EE86F7B
:1019A0000E0EE96FBCC0EAF0BDC0EBF0BAC0ECF0BF
:1019B000BBC0EDF0BEEC0EF0F60E056E000E066E2E
:1019C000A4EC0FF0F60E026E000E036EBEEC0FF0EC
:1019D000110E5F6E3C0E5E6ECB0EE82EFED75E2EB5
:1019E000FCD75F2EFAD700F0000E026E010E89ECD4
:1019F0000FF0110E5F6E3C0E5E6ECB0EE82EFED722
:101A00005E2EFCD75F2EFAD700F08FEF0CF000EFC0
:101A100000F003500410D8B410EF0DF012EF0DF0E9
:101A20001BEF0DF003500410D8A419EF0DF01BEFBD
:101A30000DF020EF0DF0015039EC10F06DEF0DF0CE
:101A400020EE04F00350D9260450DA22DE50DE10D6
:101A5000D8B42DEF0DF02FEF0DF04AEF0DF020EE82
:101A600004F00350D9260450DA2210EE02F003509D
:101A7000E1260450E222DE50E65CE650800A096E60
:101A8000DE50800A0958D8B048EF0DF04AEF0DF04B
:101A90006DEF0DF020EE02F00350D9260450DA224B
:101AA000DECF05F0DDCF06F003C0D9FF04C0DAFFBA
:101AB000DECF07F0DDCF08F005500724D96E0650C1
:101AC0000820DA6E01C0DFFF20EE02F00350D926B5
:101AD0000450DA22DE2A000EDD2212000001B6A137
:101AE00074EF0DF076EF0DF080EF0DF013C00AF0FB
:101AF00014C00BF011C00CF012C00DF010EC0FF080
:101B000016BE85EF0DF087EF0DF08DEF0DF015C0CF
:101B10001AF016C01BF091EF0DF0000E1B6E000EB8
:101B20001A6E000E196E000E186EA3EF0DF0000E67
:101B3000026E200E016E11C003F012C004F009EC19
:101B40000DF0184A192A1A50185C1950800A176E9D
:101B50001B50800A1758D8A0B0EF0DF0B2EF0DF06F
:101B600097EF0DF00001B6B1B8EF0DF0BAEF0DF040
:101B7000C4EF0DF013C00AF014C00BF011C00CF04C
:101B800012C00DF010EC0FF013C001F014C002F001
:101B90006EEC0FF01A500124116E1B500220126ED1
:101BA0001200839C839482968294859685927B9C76
:101BB0007B947A967A947D967D92040E066E540EEE
:101BC000056EEE0EE82EFED7052EFCD7062EFAD7B0
:101BD00000D0030E57EC0EF0D50EE82EFED700F025
:101BE000000E026E280E89EC0FF0D50EE82EFED7FF
:101BF00000F0000E026E280E89EC0FF0CA0EE82EDF
:101C0000FED700D0000E026E0E0E89EC0FF0CA0E49
:101C1000E82EFED700D0000E026E010E89EC0FF008
:101C2000210E056E340EE82EFED7052EFCD7000ED1
:101C3000026E060E89EC0FF01200000E106E000E00
:101C40000F6E0D500E10D8B428EF0EF02AEF0EF0E4
:101C500052EF0EF0010E116E32EF0EF0D8900D36ED
:101C60000E36112A0EAE37EF0EF039EF0EF02EEFD2
:101C70000EF0D8900F3610360D500B5C0E500C58ED
:101C8000D8A045EF0EF047EF0EF04CEF0EF00D50E0
:101C90000B5E0E500C5A0F80D8900E320D32112E62
:101CA00039EF0EF00FC00BF010C00CF01200016EF7
:101CB00001A05DEF0EF05FEF0EF062EF0EF07A869E
:101CC00063EF0EF07A9601A268EF0EF06AEF0EF065
:101CD0006DEF0EF07A846EEF0EF07A9401A473EF3C
:101CE0000EF075EF0EF078EF0EF07D8679EF0EF0C6
:101CF0007D9601A67EEF0EF080EF0EF083EF0EF0E2
:101D00007D8284EF0EF07D9232EC10F01A0EE82EF8
:101D1000FED700D0120058C05CF059C05DF0000E34
:101D20000001B16F000EB06FA9EF0EF056C040F089
:101D300057C041F05C0E426E000E436E5AC044F034
:101D40005BC045F005EC07F040500001B027415062
:101D5000B1235CC0F6FF5DC0F7FF000EF86E08000F
:101D6000F5500009D8A4B7EF0EF0B9EF0EF096EFDA
:101D70000EF0B0C056F0B1C057F01200EA0E0001EC
:101D8000EE6F000EEF6FE6C0F0F0E7C0F1F0000E6E
:101D9000F36F000EF26F000EF56F000EF46FF00E91
:101DA000566E000E576EE8C058F0E9C059F0EE0EBE
:101DB0005A6E000E5B6E8BEC0EF00001F251E625C0
:101DC000D96EF351E721DA6E000EDF6E1200010EBC
:101DD000076E200E01180210D8B4F1EF0EF0F3EFE9
:101DE0000EF00CEF0FF0F70E036EFF0E046E01C045
:101DF00005F002C006F003500526045006220650E6
:101E000009E1050E055CD8A008EF0FF00AEF0FF00E
:101E10000CEF0FF0000E076E07C001F0026A12000F
:101E2000000E106E000E0F6E21EF0FF00EC001F0CD
:101E3000026A0CC003F00DC004F009EC0DF00F4A6B
:101E4000102A0F500A24D96E10500B20DA6EDF5082
:101E50000E6E0E50D8A42FEF0FF031EF0FF016EFEB
:101E60000FF0120014BE3FEF0FF0145006E1130400
:101E7000D8B03DEF0FF03FEF0FF04DEF0FF013C074
:101E800015F014C016F0151E161E154A162A15C098
:101E900013F016C014F051EF0FF013C013F014C07C
:101EA00014F01200D00E036EFF0E046E01C005F098
:101EB00002C006F0035005260450062206500AE12F
:101EC0000A0E055CD8A067EF0FF06AEF0FF0010E65
:101ED0006BEF0FF0000E016E026A120001C003F0FA
:101EE00002C004F076EF0FF0014A022A01C0D9FFC8
:101EF00002C0DAFFDF50D8A480EF0FF082EF0FF0BE
:101F000074EF0FF00350015C016E04500258026E32
:101F10001200046E04380F0B036E0204D8A493EF72
:101F20000FF095EF0FF098EF0FF07B8C99EF0FF01B
:101F30007B9C035057EC0EF0045057EC0EF0A00EB3
:101F400000D0E82EFDD71200B1EF0FF0010E026EA7
:101F500005C0D9FF06C0DAFFDF5089EC0FF0054A53
:101F6000062A05C0D9FF06C0DAFFDF50D8A4BBEFB0
:101F70000FF0BDEF0FF0A6EF0FF01200C9EF0FF05A
:101F800002C0D9FF03C0DAFFDF501DEC10F0024A97
:101F9000032A02C0D9FF03C0DAFFDF50D8A4D3EF71
:101FA0000FF0D5EF0FF0C0EF0FF01200608060B0BF
:101FB000DCEF0FF0DEEF0FF0D7EF0FF064CF03F0A0
:101FC000046A0350FF08036E0450D8A0E82A0008F2
:101FD000046E03C001F004C002F0120005500702B5
:101FE000F3CF09F0F4CF0AF005500802F3500A26A7
:101FF00006500702F3500A2609C005F00AC006F091
:102000001200120E0E01626F110E156FE997E8951E
:10201000330EE56F000EE66FE789E88BE78F12005D
:1020200081860E0192870F015899FC0E5817030EF6
:102030005F6F60946088608E1200016E0E0137A59C
:1020400024EF10F026EF10F01EEF10F001C0E4FEB8
:10205000120000EE60F0860EEE6AE806FDE1000177
:1020600089EF0CF07B840A0EE82EFED700D07B941B
:042070001200120048
:020000040020DA
:10000000FF0FFF0FFF0FFF0FFF0FFF0FFF0FFF0F80
:020000040030CA
:0C000000AAFFFFFF9FFFFFFFFFFFFFFFB5
:00000001FF
